:100000000C9434000C943E000C943E000C943E0082
:100010000C943E000C943E000C943E000C943E0068
:100020000C943E000C943E000C943E000C943E0058
:100030000C943E000C9440000C943E000C943E0046
:100040000C943E000C943E000C943E000C943E0038
:100050000C943E000C943E000C943E000C943E0028
:100060000C943E000C943E0011241FBECFEFD8E04C
:10007000DEBFCDBF0E9458000C946E000C940000AF
:100080001F920F920FB60F9211248F939F939BB1E3
:1000900080E289278BB98CED9BE09093850080935B
:1000A00084009F918F910F900FBE0F901F90189515
:1000B000F8941092800010928100109285001092A6
:1000C00084008091810084608093810080916F0022
:1000D000816080936F00559A7894FFCFF894FFCF9A
:00000001FF
