:100000000C9434000C943E000C943E000C943E0082
:100010000C943E000C943E000C943E000C943E0068
:100020000C943E000C943E000C943E000C943E0058
:100030000C943E000C943E000C943E000C943E0048
:100040000C943E000C943E000C943E000C943E0038
:100050000C943E000C943E000C943E000C943E0028
:100060000C943E000C943E0011241FBECFEFD8E04C
:10007000DEBFCDBF0E9440000C9437020C940000FC
:10008000219A229A239A249A259A80E090E0189B3C
:10009000FECF8230910509F4E5C00CF460C08330D6
:1000A000910509F42FC18430910509F46AC13FEF2D
:1000B00043E224EF315040402040E1F700C000000F
:1000C000843091050CF04FC08130910509F4ADC02A
:1000D000029709F45AC080E090E0189BD8CF2FEF28
:1000E00039E648E1215030404040E1F700C00000CF
:1000F000299A8FEF99E628E1815090402040E1F75E
:1001000000C0000029983FEF49E688E131504040A7
:100110008040E1F700C00000299A9FEF29E638E10E
:10012000915020403040E1F700C0000029984FEF87
:1001300089E698E1415080409040E1F700C000001E
:10014000299A2FEF39E648E1215030404040E1F74D
:1001500000C000002998189962C1299A1DC0892BF6
:1001600009F4BDCF19C08430910509F4C4C08530AD
:10017000910509F44EC18BCF8FEF93E224EF8150AC
:1001800090402040E1F700C000002A98189B44C02E
:1001900081E090E0189B7BCF8FEF99E628E18150BA
:1001A00090402040E1F700C000002A9A3FEF49E666
:1001B00088E1315040408040E1F700C000002A98BB
:1001C0009FEF29E638E1915020403040E1F700C030
:1001D00000002A9A4FEF89E698E141508040904014
:1001E000E1F700C000002A982FEF39E648E12150DE
:1001F00030404040E1F700C000002A9A8FEF99E6B6
:1002000028E1815090402040E1F700C000002A988A
:1002100018991DC12A9A26C03FEF43E284EF31505E
:1002200040408040E1F700C000002998189953CF62
:100230009FEF23E234EF915020403040E1F700C0BF
:10024000000049CF4FEF83E294EF4150804090404F
:10025000E1F700C000002B98189B8ECF82E090E061
:10026000189B15CF3FEF49E688E131504040804070
:10027000E1F700C000002B9A9FEF29E638E191508A
:1002800020403040E1F700C000002B984FEF89E696
:1002900098E1415080409040E1F700C000002B9A67
:1002A0002FEF39E648E1215030404040E1F700C0EF
:1002B00000002B988FEF99E628E181509040204074
:1002C000E1F700C000002B9A3FEF49E688E131508A
:1002D00040408040E1F700C000002B981899AFC063
:1002E0002B9A10C02FEF33E244EF215030404040B2
:1002F000E1F700C000002C98189BA4CF83E090E0A9
:10030000189BC5CE9FEF29E638E191502040304040
:10031000E1F700C000002C9A4FEF89E698E14150C8
:1003200080409040E1F700C000002C982FEF39E6A4
:1003300048E1215030404040E1F700C000002C9AD5
:100340008FEF99E628E1815090402040E1F700C00E
:1003500000002C983FEF49E688E131504040804052
:10036000E1F700C000002C9A9FEF29E638E1915098
:1003700020403040E1F700C000002C9818996FC071
:100380002C9A4FEF89E698E1415080409040E1F788
:1003900000C000002D9A2FEF39E648E1215030408F
:1003A0004040E1F700C000002D988FEF99E628E16A
:1003B000815090402040E1F700C000002D9A3FEFAF
:1003C00049E688E1315040408040E1F700C000003C
:1003D0002D989FEF29E638E1915020403040E1F719
:1003E00000C000002D9A4FEF89E698E1415080400F
:1003F0009040E1F700C000002D98189918C02D9A80
:100400002FEF33E244EF215030404040E1F700C08D
:1004100000002D98189B66CF84E090E038CE8FEFD7
:1004200093E224EF815090402040E1F708CF3FEF66
:1004300043E284EF315040408040E1F75ACF9FEFD4
:1004400023E234EF915020403040E1F79CCE4FEF53
:1004500083E294EF415080409040E1F7E4CE2FEFEB
:1004600033E244EF215030404040E1F7F2CEF894BF
:02047000FFCFBC
:00000001FF
