:100000000C9434000C943E000C943E000C943E0082
:100010000C943E000C943E000C943E000C943E0068
:100020000C943E000C943E000C943E000C943E0058
:100030000C943E000C943E000C943E000C943E0048
:100040000C943E000C943E000C943E000C943E0038
:100050000C943E000C943E000C943E000C943E0028
:100060000C943E000C943E0011241FBECFEFD8E04C
:10007000DEBFCDBF0E9440000C945F000C940000D6
:10008000F89483E28093B0008EE08093B10084E620
:100090008093B30089E18093B400539A78948AE006
:1000A0008093B4002FEF39EF90E021503040904022
:1000B000E1F700C00000853690F78F5FF1CFF8942C
:0200C000FFCF70
:00000001FF
