:100000000C9434000C943E000C943E000C943E0082
:100010000C943E000C943E000C943E000C943E0068
:100020000C943E000C943E000C943E000C94400056
:100030000C943E000C943E000C943E000C943E0048
:100040000C943E000C943E000C943E000C943E0038
:100050000C943E000C943E000C943E000C943E0028
:100060000C943E000C943E0011241FBECFEFD8E04C
:10007000DEBFCDBF0E9452000C9473000C940000B0
:100080001F920F920FB60F9211248F939F939BB1E3
:1000900080E289278BB99F918F910F900FBE0F90AF
:1000A0001F901895F8941092800010928100109281
:1000B00085001092840089E196E0909389008093F6
:1000C0008800809181008860809381008091810008
:1000D00085608093810080916F00826080936F00C3
:0A00E000559A7894FFCFF894FFCFF3
:00000001FF
