:100000000C9434000C943E000C943E000C943E0082
:100010000C943E000C943E000C943E000C943E0068
:100020000C943E000C9440000C943E000C943E0056
:100030000C943E000C943E000C943E000C943E0048
:100040000C943E000C943E000C943E000C943E0038
:100050000C943E000C943E000C943E000C943E0028
:100060000C943E000C943E0011241FBECFEFD8E04C
:10007000DEBFCDBF0E9452000C945E000C940000C5
:100080001F920F920FB60F9211248F939F939BB1E3
:1000900080E289278BB99F918F910F900FBE0F90AF
:1000A0001F901895F8941092B00087E08093B100EB
:1000B00081E080937000559A7894FFCFF894FFCF39
:00000001FF
