:100000000C9434000C943E000C943E000C943E0082
:100010000C943E000C943E000C943E000C943E0068
:100020000C943E000C943E000C943E000C943E0058
:100030000C943E000C943E000C943E000C943E0048
:100040000C943E000C943E000C943E000C943E0038
:100050000C943E000C943E000C943E000C943E0028
:100060000C943E000C943E0011241FBECFEFD8E04C
:10007000DEBFCDBF0E945A000C94BB000C94000060
:100080001092C50080E18093C40086E08093C20096
:1000900088E18093C10008959091C00095FFFCCF46
:1000A0008093C60008958091C00087FFFCCF8091A7
:1000B000C60008958EEF84B981E085B90E944000A2
:1000C00081E40E944C0011E48CE4189B2BC0803525
:1000D00021F58CE40E944C0088E20E944C00CD3255
:1000E00081E0D8075CF083E70E944C008CE60E9418
:1000F0004C008FE60E944C0087E70AC086E60E940B
:100100004C0081E60E944C0083E70E944C0084E78B
:100110000E944C0089E20E944C0081E30E944C0046
:100120008CE421C08C3431F480E50E944C00C0E0A6
:10013000D0E015C0CD3291E0D9078CF0113411F028
:1001400011E401C012E4812F0E944C00189907C0ED
:10015000EFE1FEE43197F1F700C00000F7CF80E354
:100160000E944C0080E5EFE3FCE93197F1F700C015
:0A01700000002196AACFF894FFCFFB
:00000001FF
