:100000000C9434000C943E000C943E000C943E0082
:100010000C943E000C943E000C943E000C943E0068
:100020000C943E000C943E000C943E000C943E0058
:100030000C943E000C943E000C943E000C943E0048
:100040000C943E000C943E000C943E000C943E0038
:100050000C943E000C943E000C943E000C943E0028
:100060000C943E000C943E0011241FBECFEFD8E04C
:10007000DEBFCDBF0E9455000C9475000C940000AB
:1000800025B1892B49F481E090E001C0880F6A9581
:10009000EAF78095822307C081E090E001C0880FD5
:1000A0006A95EAF7822B85B90895259A2D9880E004
:1000B00090E020E030E0EFE9FFE03197F1F700C099
:1000C000000001962115310551F42D98803DF7E08F
:1000D0009F078CF380E090E021E030E0ECCF2D9A98
:0E00E000883E43E094073CF3E2CFF894FFCF54
:00000001FF
