:100000000C9434000C943E000C943E000C943E0082
:100010000C943E000C943E000C943E000C943E0068
:100020000C943E000C943E000C943E000C943E0058
:100030000C943E000C943E000C943E000C943E0048
:100040000C943E000C943E000C943E000C943E0038
:100050000C943E000C943E000C943E000C943E0028
:100060000C943E000C943E0011241FBECFEFD8E04C
:10007000DEBFCDBF0E9455000C9470000C940000B0
:1000800025B1892B49F481E090E001C0880F6A9581
:10009000EAF78095822307C081E090E001C0880FD5
:1000A0006A95EAF7822B85B90895259A65E070E094
:1000B00080E090E00E944000C0E0D0E08AEF90E055
:1000C000EFE9FFE03197F1F700C000000197C1F7B9
:1000D000F1E0CF2765E070E0CE010E944000EECF56
:0400E000F894FFCFC2
:00000001FF
