:100000000C94A1010C94BE010C94BE010C94BE0191
:100010000C94BE010C94BE010C94BE010C94BE0164
:100020000C94BE010C94BE010C94BE010C94D4013E
:100030000C94BE010C94BE010C94BE010C94BE0144
:100040000C94BE010C94BE010C94BE010C94BE0134
:100050000C94BE010C94BE010C94BE010C94BE0124
:100060000C94BE010C94BE0100407A10F35A00A01B
:10007000724E18090010A5D4E80000E87648170071
:1000800000E40B54020000CA9A3B000000E1F505B1
:10009000000080969800000040420F000000A086FB
:1000A00001000000102700000000E803000000002D
:1000B0006400000000000A000000000001000000D1
:1000C00000002C76D888DC674F0823DFC1DFAE59EB
:1000D000E1B1B796E5E3E453C63AE651997696E87E
:1000E000E6C28426EB898C9B62ED407C6FFCEFBC02
:1000F0009C9F40F2BAA56FA5F490055A2AF75C932D
:100100006B6CF9676DC11BFCE0E40D47FEF520E662
:10011000B500D0ED902E0300943577050080841E45
:10012000080000204E0A000000C80C333333330FA0
:10013000986E12831141EF8D2114893BE65516CF3D
:10014000FEE6DB18D1844B381BF77C1D901DA4BB49
:10015000E424203284725E228100C9F124ECA1E5FE
:100160003D27000000000000005F000000070007BE
:1001700000147F147F14242A7F2A12231308646238
:1001800036495522500005030000001C22410000A2
:1001900041221C0014083E081408083E08080050BC
:1001A00030000008080808080060600000201008FF
:1001B00004023E5149453E00427F400042615149A0
:1001C000462141454B311814127F102745454539CA
:1001D0003C4A494930017109050336494949360607
:1001E0004949291E00363600000056360000081422
:1001F0002241001414141414004122140802015165
:100200000906324979413E7E1111117E7F494949E3
:10021000363E414141227F4141221C7F49494941AB
:100220007F090909013E4149497A7F0808087F0092
:10023000417F41002040413F017F081422417F401F
:100240004040407F020C027F7F0408107F3E414106
:10025000413E7F090909063E4151215E7F09192966
:1002600046464949493101017F01013F4040403F35
:100270001F2040201F3F4038403F6314081463078D
:10028000087008076151494543007F41410002045D
:100290000810200041417F00040201020440404058
:1002A0004040000102040020545454787F484444E4
:1002B000383844444420384444487F38545454180F
:1002C000087E0901020C5252523E7F080404780055
:1002D000447D40002040443D007F10284400004100
:1002E0007F40007C041804787C0804047838444477
:1002F00044387C14141408081414187C7C08040472
:10030000084854545420043F4440203C4040207C42
:100310001C2040201C3C4030403C44281028440C09
:100320005050503C4464544C440008364100000096
:100330007F00000041360800100808100800000087
:10034000000011241FBECFEFD8E0DEBFCDBF11E00B
:10035000A0E0B1E0E8E0F9E102C005900D92A03420
:10036000B107D9F723E0A0E4B1E001C01D92AC379A
:10037000B207E1F70E94A2050C94820C0C940000D5
:10038000E1E8F0E080818860808388E09DE39093DD
:10039000890080938800AFE6B0E08C9182608C93F6
:1003A00080818560808308951F920F920FB60F920F
:1003B00011248F939F9380914001909141011816D1
:1003C00019062CF4019790934101809340019F916D
:1003D0008F910F900FBE0F901F9018954F925F92C4
:1003E0006F927F92AF92BF92CF92DF92EF92FF9285
:1003F0000F931F93CF93DF935C01EB010E94500496
:100400000E94930460E071E081E00E946E05F501B6
:10041000C080D180E280F38020E030E040E85FE3FC
:10042000C701B6010E9457062B013C0120E030E0D5
:1004300040EC5FE30E94C30620E030E040EC5FE365
:1004400018163CF4C701B6010E94C306882361F068
:1004500033C0C701B6010E94C306882329F0F50105
:100460004082518262827382F50160817181828152
:1004700093818E0122E044E00E943D0761E085E027
:1004800091E00E94780561E0CE010E9478056CE061
:1004900080E00E94880520E030E040EC5FE3F50159
:1004A00060817181828193810E94C30661E0811124
:1004B00018C08FE091E017C08E0122E044E0C70130
:1004C000B6010E943D0761E085E091E00E94780559
:1004D00061E0CE010E9478056CE080E00E94880512
:1004E00061E080E291E00E947805DF91CF911F9159
:1004F0000F91FF90EF90DF90CF90BF90AF907F90E3
:100500006F905F904F900C948D054F925F926F9219
:100510007F92AF92BF92CF92DF92EF92FF920F93B2
:100520001F93CF93DF935C01EB010E9450040E9464
:10053000930460E071E081E00E946E05F501C080E7
:10054000D180E280F38020E030E040E05FE3C7014B
:10055000B6010E9457062B013C0120E030E040EC40
:100560005FE30E94C30620E030E040EC5FE3181632
:100570003CF4C701B6010E94C306882361F033C072
:10058000C701B6010E94C306882329F0F501408205
:10059000518262827382F5016081718182819381CF
:1005A0008E0122E044E00E943D0761E085E091E099
:1005B0000E94780561E0CE010E9478056CE080E041
:1005C0000E94880520E030E040EC5FE3F5016081A7
:1005D0007181828193810E94C30661E0811118C0FC
:1005E0008FE091E017C08E0122E044E0C701B60120
:1005F0000E943D0761E085E091E00E94780561E09E
:10060000CE010E9478056CE080E00E94880561E0E0
:1006100080E291E00E947805DF91CF911F910F91C8
:10062000FF90EF90DF90CF90BF90AF907F906F9052
:100630005F904F900C948D054F925F926F927F92D6
:10064000AF92BF92CF92DF92EF92FF920F931F93E0
:10065000CF93DF935C01EB010E9450040E9493044E
:1006600060E071E081E00E946E05F501C080D180FC
:10067000E280F38020E030E040E85EE3C701B601AD
:100680000E9457062B013C0120E030E040EC5FE384
:100690000E94C30620E030E040EC5FE318163CF413
:1006A000C701B6010E94C306882361F033C0C701A9
:1006B000B6010E94C306882329F0F50140825182C9
:1006C00062827382F50160817181828193818E01E2
:1006D00022E044E00E943D0761E085E091E00E9455
:1006E000780561E0CE010E9478056CE080E00E9410
:1006F000880520E030E040EC5FE3F5016081718126
:10070000828193810E94C30661E0811118C08FE04D
:1007100091E017C08E0122E044E0C701B6010E94BB
:100720003D0761E085E091E00E94780561E0CE013F
:100730000E9478056CE080E00E94880561E080E21C
:1007400091E00E947805DF91CF911F910F91FF906A
:10075000EF90DF90CF90BF90AF907F906F905F90C1
:100760004F900C948D05EF92FF920F931F93CF93B0
:10077000DF937C01EB010E9450040E94930460E02F
:1007800071E081E00E946E050E94C00178948AE0C9
:1007900090E09093410180934001419A42980EE28B
:1007A00011E0809140019091410118161906FCF466
:1007B0000E949304809141018F93809140018F9317
:1007C0001F930F93DF93CF930E94660761E0CE01E2
:1007D0000E9478056AE080E00E9488050E948D05ED
:1007E0000F900F900F900F900F900F90DACFF8941A
:1007F000F701108211821282138241980E949304A1
:1008000061E088E391E00E9478056CE080E00E945E
:10081000880561E080E291E00E947805DF91CF9148
:100820001F910F91FF90EF900C948D05EFE9FFE081
:100830003197F1F700C0000020E030E040EC5FE3CA
:10084000FC0160817181828193810E94C30687FFD0
:1008500005C098B181E0892788B908954098429AE7
:1008600008952998662311F02B9A01C02B9827E050
:1008700030E090E0AC01022E02C0559547950A94F5
:10088000E2F740FF02C02C9A01C02C982D9A2D98B7
:100890002150310978F7299A089560E00C943104C9
:1008A000CF93DF93219A229A239A249A259A2A9AFF
:1008B000299A8FE39CE90197F1F700C000002A987C
:1008C0009FEF2AE683E0915020408040E1F700C08E
:1008D00000002A9A299881E20E944D0483E10E9437
:1008E0004D0486E00E944D0482EC0E944D0480E29B
:1008F0000E944D0489E00E944D0480E80E944D044E
:1009000080E40E944D04C8EFD1E061E080E00E94E5
:1009100031042197D1F788E00E944D048CE0DF91EB
:10092000CF910C944D0480E80E944D0480E40E9415
:100930004D0410923A0310923B0388EF91E0E2E4F9
:10094000F1E0DF019C011D9221503040E1F7089554
:10095000811102C084E201C080E20C944D04962F04
:10096000969596959695E82FF0E084E5989FE00D92
:10097000F11D1124EE5BFE4F677081E090E001C035
:10098000880F6A95EAF7442319F09081892B03C0F8
:10099000809590818923808308958F929F92AF9252
:1009A000BF92DF92EF92FF920F931F93CF93DF934B
:1009B00000D000D01F92CDB7DEB7F62E282F082E1C
:1009C000000C330B80326CF02052310985E0829F9D
:1009D000B001839F700D11246E597E4F45E050E0A9
:1009E0000EC0220F331FF901E45CFC4F008111811E
:1009F0000115110559F445E050E062E671E0CE01C1
:100A000001960E945D078E010F5F1F4F85E0F89EE3
:100A10005001112497E0F99E40011124D12C8D2D15
:100A200090E08A159B0544F5E12C8E2D90E0881509
:100A3000990504F58D2D6F2D0E944A06F801E80FE7
:100A4000F11D208130E08E2D0E944A0602C03595AE
:100A500027958A95E2F760913B0380913A036E0DEA
:100A600020FF02C041E001C040E08D0D0E94AF04B4
:100A7000E394DBCFD394D3CF80913A0391E0980FE6
:100A80008F2D880F880F8F0D890F843518F4809370
:100A90003A030BC010923A0380913B038F5F97E0BB
:100AA000F99E800D112480933B0380913B0380339A
:100AB00020F010923A0310923B030F900F900F908A
:100AC0000F900F90DF91CF911F910F91FF90EF90BA
:100AD000DF90BF90AF909F908F90089580323CF44C
:100AE000E82FEE0FFF0BE45CFC4F718360830895E9
:100AF0001F93CF93DF93162FEC018991882321F068
:100B0000612F0E94CD04F9CFDF91CF911F910895FD
:100B100080933A0360933B030895CF93DF9380E87B
:100B20000E944D0480E40E944D04C2E4D1E061E0E3
:100B300089910E94310483E0CA33D807C1F7DF915D
:100B4000CF910895CF93DF93CDB7DEB7A4970FB6BB
:100B5000F894DEBF0FBECDBF3A9A399A389A5098B2
:100B600051985298209819A21AA21BA21CA20E9466
:100B700050040E94930460E071E081E00E946E05E1
:100B800061E088E391E00E9478056CE080E00E94DB
:100B9000880561E080E291E00E9478050E948D0561
:100BA000429ACE0181960E9416044A9B18C0429A2E
:100BB0004298BE016F5E7F4FCE0181960E94EE018A
:100BC0004A9B07C08FE99FE00197F1F700C0000042
:100BD000F7CF8FE99FE00197F1F700C00000489B35
:100BE00018C0429A4298BE016F5E7F4FCE01819637
:100BF0000E948502489B07C08FE99FE00197F1F7AB
:100C000000C00000F7CF8FE99FE00197F1F700C027
:100C10000000499B18C0429A4298BE016F5E7F4F08
:100C2000CE0181960E941C03499B07C08FE99FE07B
:100C30000197F1F700C00000F7CF8FE99FE001971F
:100C4000F1F700C00000189BACCF20E030E040EC92
:100C50005FE369A17AA18BA19CA10E94C3068111C7
:100C600009C00E949304BE016F5F7F4FCE01819641
:100C70000E94B303189B07C08FE99FE00197F1F72B
:100C800000C00000F7CF8FE99FE00197F1F700C0A7
:100C9000000087CF991B79E004C0991F961708F0D0
:100CA000961B881F7A95C9F7809508955058BB27E1
:100CB000AA270E946E060C9403070E94F50638F0DE
:100CC0000E94FC0620F039F49F3F19F426F40C949E
:100CD000F2060EF4E095E7FB0C94EC06E92F0E9477
:100CE000140758F3BA17620773078407950720F0B3
:100CF00079F4A6F50C9436070EF4E0950B2EBA2F76
:100D0000A02D0B01B90190010C01CA01A001112411
:100D1000FF27591B99F0593F50F4503E68F11A16BD
:100D2000F040A22F232F342F4427585FF3CF46954E
:100D300037952795A795F0405395C9F77EF41F1670
:100D4000BA0B620B730B840BBAF09150A1F0FF0F3A
:100D5000BB1F661F771F881FC2F70EC0BA0F621F26
:100D6000731F841F48F4879577956795B795F79516
:100D70009E3F08F0B0CF9395880F08F09927EE0FAB
:100D80009795879508950E94C80608F481E0089514
:100D9000990F0008550FAA0BE0E8FEEF161617068C
:100DA000E807F907C0F012161306E407F50798F0F4
:100DB000621B730B840B950B39F40A2661F0232B0D
:100DC000242B252B21F408950A2609F4A140A69589
:100DD0008FEF811D811D089597F99F6780E870E06E
:100DE00060E008959FEF80EC089500240A941616A1
:100DF000170618060906089500240A941216130609
:100E0000140605060895092E0394000C11F4882396
:100E100052F0BB0F40F4BF2B11F460FF04C06F5FB2
:100E20007F4F8F4F9F4F089557FD9058440F551F88
:100E300059F05F3F71F04795880F97FB991F61F05C
:100E40009F3F79F087950895121613061406551FD3
:100E5000F2CF4695F1DF08C0161617061806991F3F
:100E6000F1CF86957105610508940895E894BB2734
:100E700066277727CB0197F90895EF920F931F9379
:100E8000CF93DF93E80147FD02C034E001C034E1B5
:100E9000042E000C550B57FF03C051954195510985
:100EA000E32E022F242FAE010E946909CE01DF91AB
:100EB000CF911F910F91EF900895FB01DC0102C0CB
:100EC00005900D9241505040D8F70895AEE0B0E043
:100ED000ECE6F7E00C94590C0D891E8986E08C83B2
:100EE0001A8309838FEF9FE79E838D83AE01475E50
:100EF0005F4F6F89788DCE0101960E948807EF8140
:100F0000F885E00FF11F10822E96E4E00C94750C2A
:100F1000ABE0B0E0EEE8F7E00C944B0C6C017B0129
:100F20008A01FC0117821682838181FFCCC1CE0128
:100F300001963C01F6019381F70193FD859193FFA2
:100F400081917F01882309F4BAC1853239F493FD78
:100F5000859193FF81917F01853229F4B60190E05C
:100F60000E94B10BE7CF912C212C312CFFE1F3151E
:100F7000D8F08B3279F038F4803279F08332A1F4F2
:100F8000232D20611DC08D3261F0803369F4232D43
:100F9000216016C0832D8260382EE32DE4603E2E42
:100FA0002AC0F32DF8601DC037FC2DC020ED280F9E
:100FB0002A3040F08E32B9F436FC81C1232D2064F2
:100FC000322E19C036FE06C08AE0989E200D1124EC
:100FD000922E11C0EAE02E9E200D1124222EF32D18
:100FE000F0623F2E08C08C3621F4832D8068382EA5
:100FF00002C0883641F4F70193FD859193FF8191FA
:101000007F018111B3CF982F9F7D9554933028F4A1
:101010000C5F1F4F9FE399830DC0833631F08337F8
:1010200071F0833509F059C021C0F80180818983AE
:101030000E5F1F4F88248394912C530113C0280105
:10104000F2E04F0E511CF801A080B18036FE03C0C3
:10105000692D70E002C06FEF7FEFC5010E94A60B03
:101060004C018201F32DFF773F2E16C0280122E0AC
:10107000420E511CF801A080B18036FE03C0692DDC
:1010800070E002C06FEF7FEFC5010E949B0B4C0127
:10109000F32DF0683F2E820133FC1BC0822D90E0BF
:1010A00088169906B0F4B60180E290E00E94B10B78
:1010B0002A94F4CFF50137FC859137FE81915F01C9
:1010C000B60190E00E94B10B21102A9421E0821A0F
:1010D00091088114910471F7E8C0843611F08936C3
:1010E00041F5F80137FE07C06081718182819381EB
:1010F0000C5F1F4F08C060817181072E000C880BA8
:10110000990B0E5F1F4FF32DFF763F2E97FF09C0FF
:1011100090958095709561957F4F8F4F9F4FF068A8
:101120003F2E2AE030E0A3010E94ED0B882E8618A6
:1011300045C0853731F4232D2F7EB22E2AE030E0D2
:1011400025C0932D997FB92E8F36C1F018F48835BC
:1011500079F0B5C0803719F0883721F0B0C0E92F99
:10116000E061BE2EB4FE0DC0FB2DF460BF2E09C0A1
:1011700034FE0AC0292F2660B22E06C028E030E0D7
:1011800005C020E130E002C020E132E0F801B7FE06
:1011900007C060817181828193810C5F1F4F06C0FF
:1011A0006081718180E090E00E5F1F4FA3010E947B
:1011B000ED0B882E8618FB2DFF773F2E36FE0DC0D7
:1011C000232D2E7FA22E891458F434FE0BC032FC3E
:1011D00009C0832D8E7EA82E05C0B82CA32C03C079
:1011E000B82C01C0B92CA4FE0FC0FE01E80DF11D02
:1011F0008081803321F49A2D997EA92E09C0A2FE08
:1012000006C0B394B39404C08A2D867809F0B394D1
:10121000A3FC11C0A0FE06C0B21488F4280C922CC6
:101220009B180EC0B21460F4B60180E290E00E94F8
:10123000B10BB394F7CFB21418F42B1802C0982C4A
:10124000212CA4FE10C0B60180E390E00E94B10BF7
:10125000A2FE17C0A1FC03C088E790E002C088E5A9
:1012600090E0B6010CC08A2D867859F0A1FE02C02C
:101270008BE201C080E2A7FC8DE2B60190E00E9403
:10128000B10B891438F4B60180E390E00E94B10BF1
:101290009A94F7CF8A94F301E80DF11D8081B6018D
:1012A00090E00E94B10B8110F5CF222009F442CECC
:1012B000B60180E290E00E94B10B2A94F6CFF601CD
:1012C0008681978102C08FEF9FEF2B96E2E10C940D
:1012D000670CA9E0B0E0EFE6F9E00C94510C6A016C
:1012E000122FB02E2BE3201720F0FF24F394F00EE2
:1012F00002C02CE3F22E0F2D27E0AE014F5F5F4FAF
:101300000E94C30ABC014981842F8970813031F069
:10131000E1FC06C0E0FE06C090E205C09DE203C00D
:101320009BE201C090E05E2D507143FF3CC09111E3
:1013300002C083E001C084E0811718F4212F281B2C
:1013400001C020E051110BC0F601822F30E288234A
:1013500019F031938150FBCFC20ED11C20E09923AC
:1013600029F0D6019C93F60131966F01C6010396D0
:10137000E2FE0AC03EE4D6013C9341E411964C9350
:10138000119712963C9306C03EE6F601308341E683
:1013900041833283FC01322F40E2332309F442C0FF
:1013A00041933150FACF42FF44C0911102C083E013
:1013B00001C084E0811718F4212F281B01C020E010
:1013C00051110BC0F601822F30E2882319F03193BE
:1013D0008150FBCFC20ED11C20E0992329F0D60109
:1013E0009C93F60131966F01C6010396E2FE0BC095
:1013F00039E4D6013C933EE411963C93119736E4D0
:1014000012963C9307C039E6F60130833EE63183FD
:1014100036E63283FC01322F40E2332319F0419348
:101420003150FBCFFC01E20FF11D10828EEF9FEFD8
:10143000A6C021E030E0911102C020E030E0161695
:1014400017061CF4FB01319602C0E1E0F0E02E0F1C
:101450003F1FBB2021F0EB2DF0E0319602C0E0E011
:10146000F0E02E0F3F1FE12FF0E02E173F071CF496
:10147000121B212F01C020E08E2D887159F4F60136
:10148000822F30E2882319F031938150FBCFC20EB6
:10149000D11C20E0992329F0D6019C93F6013196C6
:1014A0006F0151110BC0F601822F90E3882319F0D0
:1014B00091938150FBCFC20ED11C20E00F2D060F5F
:1014C0009A81342F307144FF03C0913309F40150E5
:1014D000101624F4093018F008E001C001E0AB0157
:1014E00077FF02C040E050E0FB01E41BF50BA1E0F8
:1014F000B0E0AC0FBD1FEA0FFB1F8EE2A82E4B0120
:10150000801A91080B2D10E01195019511094F3F9C
:10151000BFEF5B0721F4D601AC9211966D01641701
:1015200075072CF08416950614F4818101C080E3C0
:10153000415051093196D60111967D01401751074E
:1015400024F0D6018C936701E2CF6417750739F454
:10155000963320F4953319F4311101C081E3F6017B
:101560008083F701822F90E2882319F091938150B4
:10157000FBCFF701E20FF11D108280E090E0299689
:10158000ECE00C946D0C283008F027E03327DA01EA
:10159000990F311D87FD916000966105710539F441
:1015A00032602E5F3D9330E32A95E1F708959F3F27
:1015B00030F080387105610509F03C5F3C5F3D9378
:1015C000913008F08068911DDF93CF931F930F93A4
:1015D000FF92EF92192F987F9695E92F9695969501
:1015E000E90FFF27EE53FF4F99273327EE24FF24FF
:1015F000A701E70105900894079428F4360FE71E29
:10160000F81E491F511D660F771F881F991F0694EA
:10161000A1F70590079428F4E70EF81E491F561FFE
:10162000C11D770F881F991F661F0694A1F70590AB
:10163000079428F4F80E491F561FC71FD11D880FA5
:10164000991F661F771F0694A1F70590079420F451
:10165000490F561FC71FD81F990F661F771F881F76
:101660000694A9F784911095177041F0D695C79507
:1016700057954795F794E7941A95C1F7E8E6F0E097
:1016800068941590159135916591959105907FE23B
:101690007395E118F10A430B560BC90BD009C0F73B
:1016A000E10CF11E431F561FC91FD01D7EF470337D
:1016B00011F48A95E6CFE894015030F0080F0AF44F
:1016C0000027021708F4202F2395022F7A3328F0E1
:1016D00079E37D932A95E9F710C07D932A9589F6E1
:1016E000069497956795379517951794E118F10A21
:1016F000430B560BC90BD00998F023957E91739537
:101700007A3308F070E37C932013B8F77E91706110
:101710007D9330F0839571E37D9370E32A95E1F733
:101720001124EF90FF900F911F91CF91DF91992796
:1017300087FD90950895FC0105906150704001105F
:10174000D8F7809590958E0F9F1F0895FC016150EA
:10175000704001900110D8F7809590958E0F9F1FD3
:1017600008950F931F93CF93DF93FB01238121FDF6
:1017700003C08FEF9FEF2CC022FF16C04681578118
:10178000248135814217530744F4A081B1819D0122
:101790002F5F3F4F318320838C93268137812F5FCA
:1017A0003F4F3783268314C08B01EC01FB0100847B
:1017B000F185E02D0995892BE1F6D80116968D91DA
:1017C0009C911797019617969C938E931697CE012E
:1017D000DF91CF911F910F910895FA01AA27283028
:1017E00051F1203181F1E8946F936E7F6E5F7F4FEE
:1017F0008F4F9F4FAF4FB1E03ED0B4E03CD0670F6A
:10180000781F891F9A1FA11D680F791F8A1F911DBC
:10181000A11D6A0F711D811D911DA11D20D009F40C
:1018200068943F912AE0269F11243019305D31934E
:10183000DEF6CF010895462F4770405D4193B3E037
:101840000FD0C9F7F6CF462F4F70405D4A3318F0DE
:10185000495D31FD4052419302D0A9F7EACFB4E08F
:10186000A6959795879577956795BA95C9F7009747
:101870006105710508959B01AC010A2E06945795E8
:10188000479537952795BA95C9F7620F731F841F3F
:10189000951FA01D08952F923F924F925F926F92D5
:1018A0007F928F929F92AF92BF92CF92DF92EF92F0
:1018B000FF920F931F93CF93DF93CDB7DEB7CA1B71
:1018C000DB0B0FB6F894DEBF0FBECDBF09942A889C
:1018D000398848885F846E847D848C849B84AA8444
:1018E000B984C884DF80EE80FD800C811B81AA81D1
:1018F000B981CE0FD11D0FB6F894DEBF0FBECDBF9C
:08190000ED010895F894FFCFFA
:101908001024E024105175616E7469613A20005109
:1019180055414E544941204D4158494D41210100FE
:10192800494E53495241204D4F45444101005465A9
:101938006D706F3A202564003020524541495300AC
:00000001FF
