:100000000C94A1010C94BE010C94BE010C94BE0191
:100010000C94BE010C94BE010C94BE010C94BE0164
:100020000C94BE010C94BE010C94BE010C94D4013E
:100030000C94BE010C94BE010C94BE010C94BE0144
:100040000C94BE010C94BE010C94BE010C94BE0134
:100050000C94BE010C94BE010C94BE010C94BE0124
:100060000C94BE010C94BE0100407A10F35A00A01B
:10007000724E18090010A5D4E80000E87648170071
:1000800000E40B54020000CA9A3B000000E1F505B1
:10009000000080969800000040420F000000A086FB
:1000A00001000000102700000000E803000000002D
:1000B0006400000000000A000000000001000000D1
:1000C00000002C76D888DC674F0823DFC1DFAE59EB
:1000D000E1B1B796E5E3E453C63AE651997696E87E
:1000E000E6C28426EB898C9B62ED407C6FFCEFBC02
:1000F0009C9F40F2BAA56FA5F490055A2AF75C932D
:100100006B6CF9676DC11BFCE0E40D47FEF520E662
:10011000B500D0ED902E0300943577050080841E45
:10012000080000204E0A000000C80C333333330FA0
:10013000986E12831141EF8D2114893BE65516CF3D
:10014000FEE6DB18D1844B381BF77C1D901DA4BB49
:10015000E424203284725E228100C9F124ECA1E5FE
:100160003D27000000000000005F000000070007BE
:1001700000147F147F14242A7F2A12231308646238
:1001800036495522500005030000001C22410000A2
:1001900041221C0014083E081408083E08080050BC
:1001A00030000008080808080060600000201008FF
:1001B00004023E5149453E00427F400042615149A0
:1001C000462141454B311814127F102745454539CA
:1001D0003C4A494930017109050336494949360607
:1001E0004949291E00363600000056360000081422
:1001F0002241001414141414004122140802015165
:100200000906324979413E7E1111117E7F494949E3
:10021000363E414141227F4141221C7F49494941AB
:100220007F090909013E4149497A7F0808087F0092
:10023000417F41002040413F017F081422417F401F
:100240004040407F020C027F7F0408107F3E414106
:10025000413E7F090909063E4151215E7F09192966
:1002600046464949493101017F01013F4040403F35
:100270001F2040201F3F4038403F6314081463078D
:10028000087008076151494543007F41410002045D
:100290000810200041417F00040201020440404058
:1002A0004040000102040020545454787F484444E4
:1002B000383844444420384444487F38545454180F
:1002C000087E0901020C5252523E7F080404780055
:1002D000447D40002040443D007F10284400004100
:1002E0007F40007C041804787C0804047838444477
:1002F00044387C14141408081414187C7C08040472
:10030000084854545420043F4440203C4040207C42
:100310001C2040201C3C4030403C44281028440C09
:100320005050503C4464544C440008364100000096
:100330007F00000041360800100808100800000087
:10034000000011241FBECFEFD8E0DEBFCDBF11E00B
:10035000A0E0B1E0E2E7F9E102C005900D92A0341F
:10036000B107D9F723E0A0E4B1E001C01D92AC379A
:10037000B207E1F70E9499050C94B70C0C940000A9
:10038000E1E8F0E080818860808388E09DE39093DD
:10039000890080938800AFE6B0E08C9182608C93F6
:1003A00080818560808308951F921FB61F9211245B
:1003B0008F939F93809140019091410118161906E7
:1003C0002CF4019790934101809340019F918F916C
:1003D0001F901FBE1F901895EF92FF920F931F93CF
:1003E000CF93DF93CDB7DEB72A970FB6F894DEBF71
:1003F0000FBECDBF7C017A8769870E944A040E94A4
:100400008E0460E071E081E00E946505D7018D9166
:100410009D910D90BC91A02D8D839E83AF83B88755
:1004200020E030E040E85FE3BC01CD010E943E06E1
:1004300069837A838B839C8320E030E040EC5FE328
:100440000E94AA06181664F420E030E040EC5FE356
:100450006D817E818F8198850E94AA0681113FC09F
:1004600089819A81AB81BC81F70180839183A283CA
:10047000B38309851A8522E044E0BC01CD010E94C6
:10048000240761E085E091E00E946F0561E08985C5
:100490009A850E946F056CE080E00E947F0520E055
:1004A00030E040EC5FE3D7016D917D918D919C919F
:1004B0000E94AA0661E081112BC08FE091E00E94AA
:1004C0006F052A960FB6F894DEBF0FBECDBFDF9141
:1004D000CF911F910F91FF90EF900C9484050985A7
:1004E0001A8522E044E06D817E818F8198850E948B
:1004F000240761E085E091E00E946F0561E0898555
:100500009A850E946F056CE080E00E947F0561E0A3
:1005100080E291E0D4CFEF92FF920F931F93CF939D
:10052000DF93CDB7DEB72A970FB6F894DEBF0FBEC4
:10053000CDBF7C017A8769870E944A040E948E049D
:1005400060E071E081E00E946505D7018D919D9189
:100550000D90BC91A02D8D839E83AF83B88720E042
:1005600030E040E05FE3BC01CD010E943E066983BC
:100570007A838B839C8320E030E040EC5FE30E9431
:10058000AA06181664F420E030E040EC5FE36D81C9
:100590007E818F8198850E94AA0681113FC0898142
:1005A0009A81AB81BC81F70180839183A283B3835D
:1005B00009851A8522E044E0BC01CD010E94240790
:1005C00061E085E091E00E946F0561E089859A8590
:1005D0000E946F056CE080E00E947F0520E030E023
:1005E00040EC5FE3D7016D917D918D919C910E94CC
:1005F000AA0661E081112BC08FE091E00E946F0597
:100600002A960FB6F894DEBF0FBECDBFDF91CF9113
:100610001F910F91FF90EF900C94840509851A8526
:1006200022E044E06D817E818F8198850E942407BD
:1006300061E085E091E00E946F0561E089859A851F
:100640000E946F056CE080E00E947F0561E080E21F
:1006500091E0D4CFEF92FF920F931F93CF93DF934C
:10066000CDB7DEB72A970FB6F894DEBF0FBECDBF69
:100670007C017A8769870E944A040E948E0460E0A8
:1006800071E081E00E946505D7018D919D910D90EB
:10069000BC91A02D8D839E83AF83B88720E030E08E
:1006A00040E85EE3BC01CD010E943E0669837A8387
:1006B0008B839C8320E030E040EC5FE30E94AA063D
:1006C000181664F420E030E040EC5FE36D817E8139
:1006D0008F8198850E94AA0681113FC089819A81E5
:1006E000AB81BC81F70180839183A283B3830985A9
:1006F0001A8522E044E0BC01CD010E94240761E09C
:1007000085E091E00E946F0561E089859A850E94ED
:100710006F056CE080E00E947F0520E030E040EC57
:100720005FE3D7016D917D918D919C910E94AA0606
:1007300061E081112BC08FE091E00E946F052A9645
:100740000FB6F894DEBF0FBECDBFDF91CF911F91E2
:100750000F91FF90EF900C94840509851A8522E093
:1007600044E06D817E818F8198850E94240761E03D
:1007700085E091E00E946F0561E089859A850E947D
:100780006F056CE080E00E947F0561E080E291E00F
:10079000D4CFEF92FF920F931F93CF93DF938C01EF
:1007A000EB010E944A040E948E0460E071E081E047
:1007B0000E9465050E94C00178948AE090E09093C1
:1007C0004101809340018EE2E82E81E0F82E809175
:1007D00040019091410118161906F4F0F894F801BF
:1007E00010821182128213820E948E0461E088E3DB
:1007F00091E00E946F056CE080E00E947F0561E05F
:1008000080E291E00E946F05DF91CF911F910F91DF
:10081000FF90EF900C9484050E948E04809141011A
:100820008F93809140018F93FF92EF92DF93CF934C
:100830000E945A0761E0CE010E946F056AE080E0E5
:100840000E947F050E9484050F900F900F900F90DB
:100850000F900F90BCCF29986623A9F02B9A27E020
:1008600030E090E0AC01022E02C0559547950A9405
:10087000E2F740FF0AC02C9A2D9A2D982150310999
:1008800088F7299A08952B98EACF2C98F5CF60E045
:100890000C942B04CF93DF93219A229A239A249AC3
:1008A000259A2A9A299A8FE39CE90197F1F700C0CB
:1008B00000002A989FEF2AE683E091502040804074
:1008C000E1F700C000002A9A299881E20E944704BB
:1008D00083E10E94470486E00E94470482EC0E9464
:1008E000470480E20E94470489E00E94470480E8B0
:1008F0000E94470480E40E944704C8EFD1E061E011
:1009000080E00E942B0421972097C9F788E00E947D
:1009100047048CE0DF91CF910C94470480E80E945B
:10092000470480E40E94470410927A0310927B03EC
:10093000E2E8F1E088EF91E0DF019C011D92215097
:100940003040E1F70895882319F080E20C944704C1
:1009500084E2FCCF962F969596959695E82FF0E039
:1009600084E5989FE00DF11D1124EE57FE4F208184
:10097000677081E090E0DC0102C0AA0FBB1F6A959E
:10098000E2F7BD01442319F02A2B208308956095D6
:100990002623FBCF8F929F92AF92BF92CF92DF928E
:1009A000FF920F931F93CF93DF9300D000D00F924D
:1009B000CDB7DEB7E82F162F80320CF44FC0E052CF
:1009C00085E0E802B00111246E597E4F45E050E009
:1009D000CE0101960E945107CE0101966C0195E06F
:1009E000199F5001112487E0189F4001112400E055
:1009F000802F90E08A159B050CF465C080917A03E6
:100A00008F5F912F990F990F910F890F80937A0320
:100A1000843558F080917B0310927A038F5F97E0C2
:100A2000199F800D112480937B0380917B03803379
:100A300020F010927A0310927B030F900F900F908A
:100A40000F900F90DF91CF911F910F91FF90DF904A
:100A5000CF90BF90AF909F908F900895EE0FFF0BB7
:100A6000EE5BFE4FC080D180C114D10409F0B7CF36
:100A700045E050E062E671E0ABCFEF0D500F802F04
:100A8000612F0E943106D601A80FB11D2C9130E0D4
:100A90008F2D0E94310602C0359527958A95E2F781
:100AA00041E020FF40E06E2F852F0E94AA04F394BE
:100AB000E0917B0350917A038F2D90E08815990582
:100AC000E4F20F5F95CFF12CF3CF80323CF4E82FA6
:100AD000EE0FFF0BEE5BFE4F7183608308951F9353
:100AE000CF93DF93162FEC018991811104C0DF9120
:100AF000CF911F910895612F0E94CA04F5CF809372
:100B00007A0360937B030895CF93DF9380E80E947C
:100B1000470480E40E944704C2E8D1E061E0899183
:100B20000E942B0483E0CA37D807C1F7DF91CF9129
:100B30000895CDB7DEB7A4970FB6F894DEBF0FBE09
:100B4000CDBF509851985298209819A21AA21BA272
:100B50001CA20E944A040E948E0460E071E081E0C1
:100B60000E94650561E088E391E00E946F056CE0FA
:100B700080E00E947F0561E080E291E00E946F05C5
:100B80000E9484054A9B0FC0BE016F5E7F4FCE015D
:100B900081960E94EC014A9948C08FE99FE0019735
:100BA000F1F700C00000489B0FC0BE016F5E7F4F91
:100BB000CE0181960E948B0248993EC08FE99FE04A
:100BC0000197F1F700C00000499B0FC0BE016F5EA6
:100BD0007F4FCE0181960E942A03499934C08FE944
:100BE0009FE00197F1F700C00000189BCBCF20E0F9
:100BF00030E040EC5FE369A17AA18BA19CA10E9447
:100C0000AA06811109C00E948E04BE016F5F7F4F4A
:100C1000CE0181960E94C90318991CC08FE99FE0FC
:100C20000197F1F700C00000ADCF8FE99FE0019779
:100C3000F1F700C00000AFCF8FE99FE00197F1F717
:100C400000C00000B9CF8FE99FE00197F1F700C025
:100C50000000C3CF8FE99FE00197F1F700C00000CB
:100C6000DBCF991B79E004C0991F961708F0961BFB
:100C7000881F7A95C9F7809508955058BB27AA27F1
:100C80000E9455060C94EA060E94DC0638F00E9489
:100C9000E30620F039F49F3F19F426F40C94D906AA
:100CA0000EF4E095E7FB0C94D306E92F0E94FB06B7
:100CB00058F3BA17620773078407950720F079F491
:100CC000A6F50C941D070EF4E0950B2EBA2FA02D5F
:100CD0000B01B90190010C01CA01A0011124FF27E9
:100CE000591B99F0593F50F4503E68F11A16F040E4
:100CF000A22F232F342F4427585FF3CF46953795E3
:100D00002795A795F0405395C9F77EF41F16BA0BA7
:100D1000620B730B840BBAF09150A1F0FF0FBB1F55
:100D2000661F771F881FC2F70EC0BA0F621F731F9E
:100D3000841F48F4879577956795B795F7959E3FFB
:100D400008F0B0CF9395880F08F09927EE0F97958C
:100D5000879508950E94AF0608F481E00895990FE1
:100D60000008550FAA0BE0E8FEEF16161706E80775
:100D7000F907C0F012161306E407F50798F0621B96
:100D8000730B840B950B39F40A2661F0232B242B6B
:100D9000252B21F408950A2609F4A140A6958FEF8A
:100DA000811D811D089597F99F6780E870E060E0DC
:100DB00008959FEF80EC089500240A9416161706F4
:100DC00018060906089500240A941216130614063C
:100DD00005060895092E0394000C11F4882352F09F
:100DE000BB0F40F4BF2B11F460FF04C06F5F7F4F57
:100DF0008F4F9F4F089557FD9058440F551F59F03E
:100E00005F3F71F04795880F97FB991F61F09F3FF7
:100E100079F087950895121613061406551FF2CF20
:100E20004695F1DF08C0161617061806991FF1CF70
:100E300086957105610508940895E894BB27662797
:100E40007727CB0197F90895EF920F931F93CF93D4
:100E5000DF9300D000D00F92CDB7DEB7322F0D83D5
:100E600054E047FD54E1242F27FD2195E52E032F63
:100E70004D81512F69837A838B839C8369817A8129
:100E80008B819C810E947E098D81912F0F900F9004
:100E90000F900F900F90DF91CF911F910F91EF90D6
:100EA0000895FB01DC0102C005900D9241505040B5
:100EB000D8F70895AEE0B0E0E0E6F7E00C948E0CD1
:100EC0000D891E8986E08C831A8309838FEF9FE743
:100ED0009E838D83AE01475E5F4F6F89788DCE0113
:100EE00001960E947D072F813885020F131FF8019C
:100EF00010822E96E4E00C94AA0CAFE0B0E0E3E898
:100F0000F7E00C94830C6C017B018A01DC011796DD
:100F10001C921E92169713968C9181FFECC12AE0C9
:100F2000522EF6019381F70193FD859193FF8191F4
:100F30007F01882309F473C0853239F493FD8591CC
:100F400093FF81917F01853229F4B60190E00E94E0
:100F5000F20BE7CF912C612C712CFFE1F71508F40F
:100F600046C08B32C9F1F8F48032C1F1833209F402
:100F70003BC0833609F48AC0833709F493C08335B4
:100F800009F0B6C0F801A190B1908F01692D70E011
:100F900076FC02C06FEF7FEFC5010E94D50B4C01BC
:100FA000689477F85FC08D32E1F0803351F020ED26
:100FB000280F2A3048F18E3209F039C0689476F84B
:100FC00002C0689470F8F70193FD859193FF8191B9
:100FD0007F018111C2CF33C0689471F8689472F8B0
:100FE000F2CF689473F8EFCF689474F8ECCF77FC85
:100FF00026C020ED280F2A3070F476FE05C0959C9F
:10100000200D1124922EDFCF659C200D1124622E1D
:10101000689475F8D8CF8E3251F476FECFCFD601D2
:1010200016968D919C912F96EFE00C949F0C8C3628
:1010300019F4689477F8C7CF883609F4C4CF982F8D
:101040009F7D9554933008F094CF0C5F1F4F8FE332
:10105000898388248394912CAE014F5F5F4F5A019E
:10106000E89477F873FC05C0862D90E08816990601
:1010700040F18114910461F5662009F452CFB60164
:1010800080E290E00E94F20B6A94F6CFD8018C9136
:1010900089830E5F1F4F88248394912CFE01319623
:1010A0005F01DECFD801AD90BD908D01692D70E05C
:1010B00076FC02C06FEF7FEFC5010E94E70B4C0189
:1010C000CFCFB60180E290E00E94F20B6A94CCCFC1
:1010D000F50177FC859177FE81915F01B60190E083
:1010E0000E94F20B61106A94F1E08F1A9108C1CF4F
:1010F000843619F0893609F081C0F80177FE77C08F
:1011000061917191819191918F01272D2F76822E7E
:1011100097FF09C090958095709561957F4F8F4F8F
:101120009F4F689487F82AE030E0AE014F5F5F4F31
:101130005A010E94220C8A19A82EBA2C782C86FEFD
:101140000CC0E89470F8A91440F484FE05C082FC39
:1011500003C0782D7E7E772EB92C74FEA5C0FE01CB
:10116000EA0DF11D8081803309F097C0872D897EBB
:10117000782E73FC0EC070FEA6C09A2CB61418F41C
:10118000960C9B18B62C862D8B196B1408F480E0F6
:10119000B80EB61408F099C06B1874FE98C0B6016A
:1011A00080E390E00E94F20B72FE09C088E590E0B7
:1011B00071FC02C088E790E0B6010E94F20BA9140E
:1011C00008F492C0AA94B12C9FEFA91AB90ADE01C3
:1011D00011964D01AA0EBB1EF50182915F01B60169
:1011E00090E00E94F20B8A149B04B1F745CF619105
:1011F0007191072E000C880B990B86CF872CE894F1
:1012000084F82AE030E0853769F0572D597F852E24
:10121000803771F118F5883571F18F3609F0FFCEFE
:1012200028E030E0F80187FE2EC081919191A191D4
:10123000B1918C879D87AE87BF878F01BE016F5F9D
:101240007F4F5B01AB016C857D858E859F850E94FC
:10125000220C8A19A82EE89487F86FCF883709F0F6
:10126000DECE84FE02C0689482F820E130E0DACF5E
:10127000689484F8F6CF74FE03C0652F6660862EEE
:1012800020E132E0CFCF81919191AC0160E070E03C
:101290004C875D876E877F87D0CF72FC02C0B39486
:1012A00068CFB394B39465CF872D8678882309F4EB
:1012B00060CFF5CFB60180E290E00E94F20B8394FC
:1012C0008614C0F360CF8B2CFBCF612C66CF872DAB
:1012D0008678882309F473CF8BE271FE80E277FC75
:1012E0008DE2B60190E069CFB60180E390E00E9404
:1012F000F20B9A9464CF8FEF9FEF95CEADE0B0E004
:10130000E4E8F9E00C94810C6A01722E602EFE2C48
:10131000102F2BE3201708F41BE31F5F012F27E09A
:10132000AE014F5F5F4F6A877B878C879D876A8599
:101330007B858C859D850E94FD0A4C010981902F3B
:101340009970802F88703F2D3071913039F4882347
:1013500009F4FAC07DE2A72E84E0BBC0B82EF1FCF0
:10136000ADC04F2D4170A42E442309F477C08111E4
:10137000ACC002FDF0C0F0E23F2E540197FE02C067
:10138000A12CB12C41E050E0311002C040E050E00F
:10139000C5010196840F951F462C512CA2014F5F69
:1013A0005F4F611002C040E050E0840F951F472D51
:1013B00050E0272D281B841795070CF020E03601FC
:1013C000FFEF6F1A7F0A332309F4CCC0332019F0E2
:1013D000D6013C926301180D3A81802F80718823D9
:1013E00019F0313309F4115011160CF0E7C019301F
:1013F00008F018E0F401EA19FB0941E050E04C0F55
:101400005D1FE40FF51FA401411B51095194419444
:1014100051087EE28A149B040CF4D2C04A155B0585
:101420000CF0CEC09181B1E0AB1AB10836016FEF7C
:10143000661A760A3196A414B5040CF4C3C0D6011A
:101440009C93BFEFAB16BB0639F4360162E0660E23
:10145000711CD60111967C936301DCCF811138C0D9
:10146000502F5470352E552309F487CF83E0E72C95
:10147000E81A871508F0E12C31110BC00E2D10E091
:10148000A80160E270E0C6010E94E00BC00ED11E10
:10149000E12CBB2019F0F601B1926F0186010D5FBE
:1014A0001F4F29E69EE686E6F2FE03C029E49EE48D
:1014B00086E4F60120839183828332C0811141C08A
:1014C00002FD4DC0EBE23E2E58CF60E2A62E44CF87
:1014D00083E0E72CE81A871508F0E12C31110BC0E6
:1014E0000E2D10E0A80160E270E0C6010E94E00B42
:1014F000C00ED11EE12CAA2019F0F601A1926F01B5
:1015000086010D5F1F4F91E68EE6F2FE02C091E468
:101510008EE4D6018C9311969C93119712968C931E
:10152000F12CA70160E270E0C8010E94E00BF80115
:10153000EE0DFF1D10828EEF9FEF2D96E1E10C94D2
:101540009D0C5BE2A52E08CF4DE2B42E02FD05C036
:101550008DE2382E12CF20E2B22E84E088CF9BE2BB
:10156000B92EFBCFF3FC18C0E22EF12CA70160E2EC
:1015700070E0C6010E94E00B36016E0C7F1C20E07B
:10158000332071F0FFEFEF1AFF0AD3013C9220E005
:1015900036016E0C7F1C04C0332071F0F6013082DE
:1015A000C22ED12CA60160E370E0C3010E94E00BC3
:1015B000C60CD71C20E00FCF3601F2CF11E01ACFB6
:1015C00090E331CF8A149B0439F4363320F4353359
:1015D00019F4811101C091E3F6019083E22EF12C00
:1015E000A70160E270E0C3010E94E00BF301EE0D81
:1015F000FF1D108280E090E0A0CF283008F027E0A7
:101600003327DA01990F311D87FD9160009661053E
:10161000710539F432602E5F3D9330E32A95E1F78E
:1016200008959F3F30F080387105610509F03C5FF7
:101630003C5F3D93913008F08068911DDF93CF931C
:101640001F930F93FF92EF92192F987F9695E92F92
:1016500096959695E90FFF27EE53FF4F992733276D
:10166000EE24FF24A701E70105900894079428F4CD
:10167000360FE71EF81E491F511D660F771F881F82
:10168000991F0694A1F70590079428F4E70EF81E19
:10169000491F561FC11D770F881F991F661F06948B
:1016A000A1F70590079428F4F80E491F561FC71F8D
:1016B000D11D880F991F661F771F0694A1F705900B
:1016C000079420F4490F561FC71FD81F990F661F94
:1016D000771F881F0694A9F784911095177041F021
:1016E000D695C79557954795F794E7941A95C1F7FE
:1016F000E8E6F0E068941590159135916591959123
:1017000005907FE27395E118F10A430B560BC90B64
:10171000D009C0F7E10CF11E431F561FC91FD01D91
:101720007EF4703311F48A95E6CFE894015030F0DE
:10173000080F0AF40027021708F4202F2395022F20
:101740007A3328F079E37D932A95E9F710C07D93E9
:101750002A9589F606949795679537951795179466
:10176000E118F10A430B560BC90BD00998F02395E9
:101770007E9173957A3308F070E37C932013B8F769
:101780007E9170617D9330F0839571E37D9370E37A
:101790002A95E1F71124EF90FF900F911F91CF91BF
:1017A000DF91992787FD90950895FC010590615080
:1017B00070400110D8F7809590958E0F9F1F089567
:1017C000DC0101C06D9341505040E0F70895FC01E9
:1017D0006150704001900110D8F7809590958E0F60
:1017E0009F1F08950F931F93CF93DF93182F092FF7
:1017F000EB018B8181FD09C01FEF0FEF812F902F2F
:10180000DF91CF911F910F91089582FF14C02E8117
:101810003F818C819D81281739073CF4E881F9814B
:10182000CF0101969983888310838E819F810196D1
:101830009F838E83E3CFE885F985812F0995892BD6
:10184000A1F3DACFFA01AA27283051F1203181F132
:10185000E8946F936E7F6E5F7F4F8F4F9F4FAF4FB8
:10186000B1E03ED0B4E03CD0670F781F891F9A1FCB
:10187000A11D680F791F8A1F911DA11D6A0F711D7F
:10188000811D911DA11D20D009F468943F912AE08B
:10189000269F11243019305D3193DEF6CF01089573
:1018A000462F4770405D4193B3E00FD0C9F7F6CFA4
:1018B000462F4F70405D4A3318F0495D31FD40526C
:1018C000419302D0A9F7EACFB4E0A6959795879502
:1018D00077956795BA95C9F70097610571050895E1
:1018E0009B01AC010A2E069457954795379527958D
:1018F000BA95C9F7620F731F841F951FA01D089525
:101900002F923F924F925F926F927F928F929F920F
:10191000AF92BF92CF92DF92EF92FF920F931F93FD
:10192000CF93DF93CDB7DEB7CA1BDB0B0FB6F894AE
:10193000DEBF0FBECDBF09942A88398848885F84EE
:101940006E847D848C849B84AA84B984C884DF805F
:10195000EE80FD800C811B81AA81B981CE0FD11D43
:101960000FB6F894DEBF0FBECDBFED010895F89419
:02197000FFCFA7
:101972001024E024105175616E7469613A2000519F
:1019820055414E544941204D4158494D4121010094
:10199200494E53495241204D4F454441010054653F
:1019A2006D706F3A20256400302052454149530042
:00000001FF
